{
  "contractName": "HealthRecord",
  "abi": [
    {
      "anonymous": false,
      "inputs": [
        {
          "indexed": true,
          "internalType": "address",
          "name": "patient",
          "type": "address"
        },
        {
          "indexed": false,
          "internalType": "string",
          "name": "data",
          "type": "string"
        },
        {
          "indexed": false,
          "internalType": "uint256",
          "name": "timestamp",
          "type": "uint256"
        }
      ],
      "name": "RecordAdded",
      "type": "event"
    },
    {
      "inputs": [
        {
          "internalType": "string",
          "name": "_patientName",
          "type": "string"
        },
        {
          "internalType": "string",
          "name": "_data",
          "type": "string"
        }
      ],
      "name": "addRecord",
      "outputs": [],
      "stateMutability": "nonpayable",
      "type": "function"
    },
    {
      "inputs": [],
      "name": "getRecords",
      "outputs": [
        {
          "components": [
            {
              "internalType": "string",
              "name": "patientName",
              "type": "string"
            },
            {
              "internalType": "string",
              "name": "data",
              "type": "string"
            },
            {
              "internalType": "uint256",
              "name": "timestamp",
              "type": "uint256"
            }
          ],
          "internalType": "struct HealthRecord.Record[]",
          "name": "",
          "type": "tuple[]"
        }
      ],
      "stateMutability": "view",
      "type": "function"
    }
  ],
  "bytecode": "0x608060405234801561001057600080fd5b5061087d806100206000396000f3fe608060405234801561001057600080fd5b50600436106100365760003560e01c80638eff3c291461003b578063c959624814610059575b600080fd5b610043610075565b6040516100509190610641565b60405180910390f35b610073600480360381019061006e9190610465565b61023e565b005b60606000803373ffffffffffffffffffffffffffffffffffffffff1673ffffffffffffffffffffffffffffffffffffffff168152602001908152602001600020805480602002602001604051908101604052809291908181526020016000905b828210156102355783829060005260206000209060030201604051806060016040529081600082018054610108906107a6565b80601f0160208091040260200160405190810160405280929190818152602001828054610134906107a6565b80156101815780601f1061015657610100808354040283529160200191610181565b820191906000526020600020905b81548152906001019060200180831161016457829003601f168201915b5050505050815260200160018201805461019a906107a6565b80601f01602080910402602001604051908101604052809291908181526020018280546101c6906107a6565b80156102135780601f106101e857610100808354040283529160200191610213565b820191906000526020600020905b8154815290600101906020018083116101f657829003601f168201915b50505050508152602001600282015481525050815260200190600101906100d5565b50505050905090565b6000803373ffffffffffffffffffffffffffffffffffffffff1673ffffffffffffffffffffffffffffffffffffffff168152602001908152602001600020604051806060016040528084815260200183815260200142815250908060018154018082558091505060019003906000526020600020906003020160009091909190915060008201518160000190805190602001906102dc92919061035a565b5060208201518160010190805190602001906102f992919061035a565b506040820151816002015550503373ffffffffffffffffffffffffffffffffffffffff167f4b92a41aaac1d087148ec39a65a261cc6ac88ed7765dece5374bb3893fcfcf9e824260405161034e929190610663565b60405180910390a25050565b828054610366906107a6565b90600052602060002090601f01602090048101928261038857600085556103cf565b82601f106103a157805160ff19168380011785556103cf565b828001600101855582156103cf579182015b828111156103ce5782518255916020019190600101906103b3565b5b5090506103dc91906103e0565b5090565b5b808211156103f95760008160009055506001016103e1565b5090565b600061041061040b846106c4565b610693565b90508281526020810184848401111561042857600080fd5b610433848285610764565b509392505050565b600082601f83011261044c57600080fd5b813561045c8482602086016103fd565b91505092915050565b6000806040838503121561047857600080fd5b600083013567ffffffffffffffff81111561049257600080fd5b61049e8582860161043b565b925050602083013567ffffffffffffffff8111156104bb57600080fd5b6104c78582860161043b565b9150509250929050565b60006104dd83836105cc565b905092915050565b60006104f082610704565b6104fa8185610727565b93508360208202850161050c856106f4565b8060005b85811015610548578484038952815161052985826104d1565b94506105348361071a565b925060208a01995050600181019050610510565b50829750879550505050505092915050565b60006105658261070f565b61056f8185610738565b935061057f818560208601610773565b61058881610836565b840191505092915050565b600061059e8261070f565b6105a88185610749565b93506105b8818560208601610773565b6105c181610836565b840191505092915050565b600060608301600083015184820360008601526105e9828261055a565b91505060208301518482036020860152610603828261055a565b91505060408301516106186040860182610623565b508091505092915050565b61062c8161075a565b82525050565b61063b8161075a565b82525050565b6000602082019050818103600083015261065b81846104e5565b905092915050565b6000604082019050818103600083015261067d8185610593565b905061068c6020830184610632565b9392505050565b6000604051905081810181811067ffffffffffffffff821117156106ba576106b9610807565b5b8060405250919050565b600067ffffffffffffffff8211156106df576106de610807565b5b601f19601f8301169050602081019050919050565b6000819050602082019050919050565b600081519050919050565b600081519050919050565b6000602082019050919050565b600082825260208201905092915050565b600082825260208201905092915050565b600082825260208201905092915050565b6000819050919050565b82818337600083830152505050565b60005b83811015610791578082015181840152602081019050610776565b838111156107a0576000848401525b50505050565b600060028204905060018216806107be57607f821691505b602082108114156107d2576107d16107d8565b5b50919050565b7f4e487b7100000000000000000000000000000000000000000000000000000000600052602260045260246000fd5b7f4e487b7100000000000000000000000000000000000000000000000000000000600052604160045260246000fd5b6000601f19601f830116905091905056fea26469706673582212209821ca2dc4091b26bd1a40576c817ee2dc86134e32c6c5940a396b17bab700e064736f6c63430008000033",
  "immutableReferences": {},
  "source": "// SPDX-License-Identifier: MIT\r\npragma solidity ^0.8.0;\r\n\r\ncontract HealthRecord {\r\n    struct Record {\r\n        string patientName;\r\n        string data;\r\n        uint256 timestamp;\r\n    }\r\n\r\n    mapping(address => Record[]) private records;\r\n\r\n    event RecordAdded(address indexed patient, string data, uint256 timestamp);\r\n\r\n    function addRecord(string memory _patientName, string memory _data) public {\r\n        records[msg.sender].push(Record(_patientName, _data, block.timestamp));\r\n        emit RecordAdded(msg.sender, _data, block.timestamp);\r\n    }\r\n\r\n    function getRecords() public view returns (Record[] memory) {\r\n        return records[msg.sender];\r\n    }\r\n}",
  "sourcePath": "C:\\Users\\svvai\\OneDrive\\Desktop\\HealthBridgePlatform\\blockchain\\contracts\\HealthRecord.sol",
  "compiler": {
    "name": "solc",
    "version": "0.8.0+commit.c7dfd78e.Emscripten.clang"
  },
  "schemaVersion": "3.4.16",
  "updatedAt": "2025-01-09T03:52:45.028Z",
  "devdoc": {
    "kind": "dev",
    "methods": {},
    "version": 1
  },
  "userdoc": {
    "kind": "user",
    "methods": {},
    "version": 1
  }
}